:1000000012C02CC02BC02AC029C028C055C426C08D
:1000100025C024C023C022C021C020C01FC01EC0D4
:100020001DC01CC01BC011241FBECFE5D4E0DEBF25
:10003000CDBF10E0A0E6B0E0E6E1F0E102C005903F
:100040000D92A03EB107D9F711E0A0EEB0E001C0DB
:100050001D92A230B107E1F764D0DBC7D1CF90BDCC
:1000600089B988E18AB986E880BD08955D9BFECF95
:100070008CB90895DC01EC91EE2359F080E05D9B92
:10008000FECFECB98F5FFD01E80FF11DE081EE239B
:10009000B1F70895382F6130D9F0613058F425B3A5
:1000A00081E090E002C0880F991F3A95E2F7282B73
:1000B00025BB0895623009F0089525B381E090E0F2
:1000C00002C0880F991F3A95E2F7282725BB0895AB
:1000D00025B381E090E002C0880F991F3A95E2F7BE
:1000E0008095822385BB0895DAD29BC287B388634B
:1000F00087BBC49A81B3896181BB82B3866082BBAE
:1001000084B3886384BB85B38C6385BB0895EEDFBD
:10011000EBDF8CE090E0A3DFBBD385B78F7885BFA2
:100120000895F5DF80E690E0A5DF7894BCD338D45D
:1001300037D4FDCF1F93CF93DF931F92CDB7DEB798
:10014000182F803208F4106280E06983B2D2812FC8
:10015000ABD26981862FA8D281E00F90DF91CF9139
:100160001F91A7C2CF93C82F80E0A3D28C2F9CD21F
:1001700080E09AD2C82F81E09CD28C2FCF91089535
:10018000EF92FF92CF93DF93C82F7B01D42F80E0B3
:1001900090D28C2F89D2DD2349F0C0E080E084D258
:1001A000F70181937F01CF5FCD13F8CF81E0DF911D
:1001B000CF91FF90EF907DC2EF92FF92CF93DF93AC
:1001C000C82F7B01D42F80320CF4C06280E071D242
:1001D0008C2F6AD2DD2341F0C0E0F70181917F01CD
:1001E00063D2CF5FCD13F9CF81E0DF91CF91FF9044
:1001F000EF905FC2CF93C82F87E0B4DF87FF06C0C0
:10020000C11106C063E580E5CF9194CFC111FACF4B
:10021000CF910895EF92FF921F93CF93DF93CDB7C5
:10022000DEB72C970FB6F894DEBF0FBECDBF81E0CE
:10023000E1DF91E8E92E90E0F92E10E0F70141911D
:100240005191619171917F0149835A836B837C83C2
:1002500044E0BE016F5F7F4F812FAEDF1F5F19301B
:1002600069F785EAE82E80E0F82EF7014191519177
:10027000619171917F0179836A835B834C8344E050
:10028000BE016F5F7F4F812F97DF1F5F1E3069F7C1
:100290004BE066E770E08EE08FDF8EE98A8386E8C8
:1002A0008B838BE08C838FEF898344E0BE016F5F8B
:1002B0007F4F84E081DF8981897F898344E0BE01AB
:1002C0006F5F7F4F84E078DF80E094DF2C960FB67D
:1002D000F894DEBF0FBECDBFDF91CF911F91FF908D
:1002E000EF900895CF93DF9387E03CDFC82F63E55D
:1002F00080E520DF87E036DFD82F63E580E51ADF71
:10030000CD2781E0C03809F080E0DF91CF910895DA
:1003100060E082EE0FDF87E025DF682F87E00ADFED
:1003200080E0CDD180E01EDF682F636080E002DFD7
:1003300081E0C5C160E081EEFDDE87E013DF682F5C
:1003400087E0F8DE80E0BBD180E00CDF682F6E7FB5
:10035000626080E0EFDE81E0B2C180E0B0D180E099
:1003600001DF682F626080E0E5CE80E0A8D180E008
:10037000F9DE682F6D7F80E0DDCE682F6E7785E037
:10038000D9CECF93C82F80E09AD186E0EBDE682FDC
:10039000677FC23008F0686086E0CCDE81E0CF91F4
:1003A0008EC1CF93DF93C82F80E0C33068F4DADECC
:1003B000D82FC1110BC060E081E0BCDE6D2F637FE0
:1003C00080E0DF91CF91B6CECDDED82F6FE381E014
:1003D000B1DE6D2F6B7F623021F080E0DF91CF9135
:1003E000A9CE66E080E0DF91CF91A4CE863028F4DC
:1003F000833030F461E083E09DCE63E083E09ACE09
:10040000682F6250F8CF87E1ADDE85FB882780F941
:10041000089587E1A7DE8170089545E0BC018AE078
:10042000CBCE45E0BC018BE0C7CE865F83CE45E0F6
:10043000BC0180E1C1CE88E095DE8F70089588E030
:1004400091DE82958F7008951F93CF93DF931F9253
:10045000CDB7DEB7182F81E0698384DE912F6981E3
:10046000163008F095E061110EC061E070E001C047
:10047000660F9A95EAF76095682381E00F90DF9107
:10048000CF911F9157CE61E070E001C0660F9A9541
:10049000EAF7682B81E00F90DF91CF911F914ACE50
:1004A0001F93CF93DF931F92CDB7DEB7182F82E053
:1004B000698358DE912F6981163008F095E061114B
:1004C0000EC061E070E001C0660F9A95EAF7609592
:1004D000682382E00F90DF91CF911F912BCE61E0D6
:1004E00070E001C0660F9A95EAF7682B82E00F90E2
:1004F000DF91CF911F911ECE85E034DE682F85E01D
:1005000019CE20E1829FC00111246F70682B84E016
:1005100011CE86E027DE682F616086E00BCE86E094
:1005200021DE682F6E7F86E005CECF93C82F80E056
:10053000C6D086E017DE897080636C2FC43008F067
:1005400063E0660F682B86E0F5DD81E0CF91B7C0F0
:10055000CF93DF93D82FC62F8CE16132A0F402DE57
:10056000C11113C021E030E00D2E01C0220F0A940A
:10057000EAF7682F622B8CE1DDDD6C2F8D2F8F5E0B
:10058000DF91CF91D7CDEEDDC0E221E030E00D2E3E
:1005900001C0220F0A94EAF7622F609568238CE16C
:1005A000C9DD6C2F8D2F8F5EDF91CF91C3CD462F8C
:1005B000613208F040E2BC0180EAFECD462F613294
:1005C00008F040E2BC0180EBF7CD87E0CBDD8695FB
:1005D0008770089580E6C6CDAF92BF92CF92DF922A
:1005E000EF92FF926C015B017A01EFDF873089F0B7
:1005F000F6018083EFDFF7018083482FB50181E6A4
:10060000BFDD81E0FF90EF90DF90CF90BF90AF9083
:10061000089580E0FF90EF90DF90CF90BF90AF9073
:100620000895EF92FF9280E04AD081E042D080E0CE
:1006300052D080E04AD080E0DDDD2FEBE22E20E0DA
:10064000F22EF7013197D7016C91808173DDB2E012
:10065000EB0EF11C83EDE81680E0F80691F789EBCC
:1006600090E0DBDE89EB90E0DCDE89EB90E0DFDE22
:100670008DE178DD811103C063E780E55BDD6FE329
:100680008CE158DD67E08DE155DD60E080E060DF02
:1006900060E081E05DDFBEDDFF90EF9039CE80E568
:1006A0008DB981E08EB908958FB9779BFECF8FB158
:1006B0000895882311F0939A0895939808958823B4
:1006C00011F0949A089594980895882311F0C39A8C
:1006D0000895C3980895882311F0C59A0895C59880
:1006E00008959C0121503109892B21F000002150EF
:1006F0003109E0F70895AA98A29A8CE390E00000EF
:100700000197E9F7A2980000000000000000000037
:100710000000000083B3847024E330E00000215027
:100720003109E1F70895AA98A29A8111A2980000D0
:10073000000000000000000000000000A2980895E2
:10074000AA98A29AA298000083B3000000000000BB
:100750000000000082FB882780F90895CF93DF9383
:10076000D8E0C0E0EDDF20E8829FC0011124C695EB
:10077000C82BD150B9F78C2FDF91CF910895CF932B
:10078000DF93D82FC8E08D2F8170CDDFD695C15073
:10079000D1F7DF91CF9108950F931F93CF93DF93FC
:1007A000D82F192FA8DF8CECEADF84E4E8DFC8DF5C
:1007B0008823E9F3A0DF8CECE2DF8EEBE0DFCEDF15
:1007C000C82FCCDF082F97DF6C2F62956F70CF702A
:1007D00041E752E0C49F9001C59F300D11243F9323
:1007E0002F93077080E1089F90011124622B262F20
:1007F000332727FD30953F936F9322ED30E03F93F1
:100800002F931F93DF933FD18DB79EB708960FB6F6
:10081000F8949EBF0FBE8DBFDF91CF911F910F91B6
:100820000895CF92DF92EF92FF92CF93DF936C0106
:100830007B0161DF8CECA3DF84E4A1DF81DF88230F
:10084000E9F359DF8CEC9BDF8EEB99DF87DFC82F54
:1008500085DFD82F50DF9C2F92959F70CF70D77077
:1008600080E1D89F90011124922BF601908341E7FB
:1008700052E0C49F9001C59F300D1124F7013183D0
:100880002083DF91CF91FF90EF90DF90CF9008957C
:100890001DBC1CBC80E593EC9BBD8ABD88E08EBD71
:1008A00080E189BF089589E08EBD089588E08EBDFE
:1008B00008951DBC1CBC08951F920F920FB60F9295
:1008C00011242F933F934F935F936F937F938F9355
:1008D0009F93AF93BF93CF93DF93EF93FF93609179
:1008E000E0007091E100E2EEF0E0A1E020E030E015
:1008F000C1E0D0E0B22F408151814F5F5F4F518303
:1009000040832130B1F1213068F5A1E081E090E031
:100910004817590750F0CE0102C0880F991FBA95A9
:10092000E2F7682B792B118210822F5F3F4F3296AE
:1009300024303105F9F67093E1006093E000FF91F7
:10094000EF91DF91CF91BF91AF919F918F917F9167
:100950006F915F914F913F912F910F900FBE0F902C
:100960001F901895223069F0233039F08A2F90E0DB
:10097000CFCFA2E382E390E0CBCFA4E184E190E08B
:10098000C7CFA5E085E090E0C3CFF89485B7806835
:1009900085BF7894889585B78F7785BF78940895BB
:1009A000AF92BF92CF92DF92EF92FF920F931F937D
:1009B000DF93CF93CDB7DEB764970FB6F894DEBF61
:1009C0000FBECDBF00E010E02091E0003091E100CB
:1009D00081E0C82ED12C5E010894A11CB11C7601C7
:1009E000002E02C0EE0CFF1C0A94E2F7C70182231E
:1009F0009323892BA1F00130E9F1013038F583E030
:100A000062E048DB2091E0003091E100C701809571
:100A10009095282339233093E1002093E0000F5F65
:100A20001F4F04301105D9F6B0DF64960FB6F89465
:100A3000DEBF0FBECDBFCF91DF911F910F91FF9011
:100A4000EF90DF90CF90BF90AF900895023051F0BB
:100A50000330E1F685E062E01DDB2091E00030919B
:100A6000E100D4CF84E062E015DB2091E00030911A
:100A7000E100CCCFC50190DEC501FCDA2091E00099
:100A80003091E100C3CFA0E1B0E0E8E4F5E098C226
:100A90000F89188D86E08C831A8309838FEF9FE777
:100AA0009E838D83AE01455E5F4F588B4F87698D66
:100AB0007A8DCE01019608D0EF81F885E00FF11F05
:100AC00010826096E4E098C2ACE0B0E0E9E6F5E0C0
:100AD00069C27C016B018A01FC0117821682838145
:100AE00081FFBAC188248394912C8C0E9D1EF7013E
:100AF0009381F60193FD859193FF81916F01882386
:100B000009F4A6C1853239F493FD859193FF819153
:100B10006F01853221F4B70190E0BAD1E8CF712C92
:100B2000312C20E02032A8F48B3261F028F480329E
:100B300051F0833271F40BC08D3239F0803349F4B7
:100B4000216028C02260246025C0286023C0206165
:100B500021C027FD27C0382F30533A3078F426FFC4
:100B600006C0FAE07F9E300D1124732E13C08AE078
:100B7000389E300D1124332E20620CC08E3221F4A9
:100B800026FD66C1206406C08C3611F4206802C0C0
:100B9000883641F4F60193FD859193FF81916F01B1
:100BA0008111C0CF982F9554933018F09052933004
:100BB00028F40C5F1F4FFFE3F9830DC0833631F03B
:100BC000833771F0833509F05AC022C0F801808163
:100BD00089830E5F1F4F66246394712C540114C0E7
:100BE0002801F2E04F0E511CF801A080B18026FFD1
:100BF00003C0672D70E002C06FEF7FEFC5012C8747
:100C00003CD13C0182012C856FE7262E222217C0A1
:100C10002801F2E04F0E511CF801A080B18026FFA0
:100C200003C0672D70E002C06FEF7FEFC5012C8716
:100C300019D13C012C8550E8252E222A820123FC63
:100C40001AC005C0B70180E290E022D13A94832D0A
:100C500090E068167906B0F30EC0F50127FC859187
:100C600027FE81915F01B70190E012D131103A94D3
:100C7000F1E06F1A71086114710479F7E6C08436E7
:100C800011F0893639F5F80127FF07C060817181BD
:100C9000828193810C5F1F4F08C06081718188271A
:100CA00077FD8095982F0E5F1F4F4FE6642E6222CE
:100CB00097FF09C090958095709561957F4F8F4FF4
:100CC0009F4FF0E86F2A2AE030E0A4010DD1A82E52
:100CD000A81843C0853731F43FEEB32EB2222AE084
:100CE00030E024C099EFB92EB2228F36B9F020F44B
:100CF000883509F0ADC00DC0803721F0883709F084
:100D0000A7C002C020E1B22AB4FE0BC084E0B82A1A
:100D100008C024FF09C0E6E0BE2A06C028E030E093
:100D200005C020E130E002C020E132E0F801B7FE6A
:100D300007C060817181828193810C5F1F4F06C063
:100D40006081718180E090E00E5F1F4FA401CCD0E4
:100D5000A82EA8188FE7682E6B2066FE0BC0362DD4
:100D60003E7FA71450F464FE0AC062FC08C0362D12
:100D70003E7E05C0BA2C362D03C0BA2C01C0B72C5C
:100D800034FF0DC0FE01EA0DF11D8081803311F4A6
:100D9000397E09C032FF06C0B394B39404C0832FD8
:100DA000867809F0B39433FD13C030FF0EC07A2C5F
:100DB000B31458F4730C7B18B32C07C0B70180E24E
:100DC00090E03C8765D0B3943C85B314B8F304C07D
:100DD000B31410F43B1801C0312C34FF11C0B7011B
:100DE00080E390E03C8754D03C8532FF1CC031FF4B
:100DF00003C088E590E002C088E790E0B7010CC02E
:100E0000832F867881F031FD02C080E201C08BE241
:100E100037FD8DE2B70190E03BD005C0B70180E31C
:100E200090E036D07A94A714C8F3AA94F401EA0D9E
:100E3000F11DB701808190E02BD0A110F6CF05C045
:100E4000B70180E290E024D03A943110F9CF4FCE30
:100E5000F7012681378102C02FEF3FEFC9012C96A1
:100E6000E2E1BCC0FC010590615070400110D8F770
:100E7000809590958E0F9F1F0895FC0161507040E2
:100E800001900110D8F7809590958E0F9F1F0895BF
:100E90000F931F93CF93DF938C01EB018B8181FD27
:100EA00003C00FEF1FEF1AC082FF0DC02E813F81DC
:100EB0008C819D812817390764F4E881F9810193B9
:100EC000F983E88306C0E885F985802F0995892B89
:100ED00041F78E819F8101969F838E83C801DF91A8
:100EE000CF911F910F910895FA01AA27283051F14F
:100EF000203181F1E8946F936E7F6E5F7F4F8F4F4B
:100F00009F4FAF4FB1E03ED0B4E03CD0670F781FA9
:100F1000891F9A1FA11D680F791F8A1F911DA11D8E
:100F20006A0F711D811D911DA11D20D009F46894C7
:100F30003F912AE0269F11243019305D3193DEF66F
:100F4000CF010895462F4770405D4193B3E00FD025
:100F5000C9F7F6CF462F4F70405D4A3318F0495D10
:100F600031FD4052419302D0A9F7EACFB4E0A695F3
:100F70009795879577956795BA95C9F70097610515
:100F8000710508959B01AC010A2E0694579547956B
:100F900037952795BA95C9F7620F731F841F951F60
:100FA000A01D08952F923F924F925F926F927F9271
:100FB0008F929F92AF92BF92CF92DF92EF92FF9269
:100FC0000F931F93CF93DF93CDB7DEB7CA1BDB0B15
:100FD0000FB6F894DEBF0FBECDBF09942A883988BA
:100FE00048885F846E847D848C849B84AA84B984C1
:100FF000C884DF80EE80FD800C811B81AA81B981CD
:10100000CE0FD11D0FB6F894DEBF0FBECDBFED01E0
:061010000895F894FFCFE3
:1010160057656C636F6D6520746F2068656C6C2115
:1010260021210D0A0000412008048120CFF7FEFF90
:10103600FF404B01E2C04B0000D0FC8C0299003906
:1010460041F99E860B24067FA600000000000000E2
:10105600000000000000000000000000000000008A
:1010660000007312000080B4363443101001000DE6
:1010760001000203030104F0050206300707080019
:101086001700252B642E2530347520430D0A0000E9
:00000001FF
